:020000040800F2
:1000000070E2012049660008096400080B640008DA
:100010000F64000813640008176400080000000063
:100020000000000000000000000000001B64000849
:100030001D640008000000001F640008216400081F
:10004000636600086366000863660008636600086C
:10005000636600086366000863660008636600085C
:10006000636600086366000863660008636600084C
:10007000636600086366000863660008636600083C
:10008000636600086366000863660008636600082C
:10009000636600086366000863660008636600081C
:1000A000636600086366000863660008636600080C
:1000B0006366000863660008636600082B31000869
:1000C000773200086366000863660008636600080C
:1000D0006366000863660008AD5B0008F35B000818
:1000E00063660008636600086366000863660008CC
:1000F00063660008636600086366000863660008BC
:1001000063660008636600086366000863660008AB
:10011000E754000863660008636600086366000829
:1001200063660008631300086366000863660008DE
:10013000636600086366000863660008636600087B
:1001400063660008636600086366000829640008A7
:10015000636600086366000863660008636600085B
:10016000636600086366000863660008636600084B
:1001700063660008636600087D1200086366000875
:10018000636600086366000800F002F800F069F892
:100190000AA090E8000C82448344AAF10107DA45E2
:1001A00001D100F05EF8AFF2090EBAE80F0013F0CB
:1001B000010F18BFFB1A43F00103184774BD00007C
:1001C00094BD00000A444FF0000C10F8013B13F0FE
:1001D000070408BF10F8014B1D1108BF10F8015BA0
:1001E000641E05D010F8016B641E01F8016BF9D193
:1001F00013F0080F1EBF10F8014BAD1C0C1B09D1EA
:100200006D1E58BF01F801CBFAD505E014F8016B5B
:1002100001F8016B6D1EF9D59142D6D370470000ED
:100220000023002400250026103A28BF78C1FBD8FF
:10023000520728BF30C148BF0B6070471FB50BF095
:10024000E7FD9DE803000BF00DFC0BF01BFD040027
:10025000002000210BF0C6FD401C60601FBD10B5E2
:1002600010BD0BF0EAFC1146FFF7E8FF03F0FEFBC0
:100270000BF01AFD03B4FFF7F2FF03BC0BF04AFDCD
:1002800002460B7883EA020080EA0013D8B20B889A
:100290001B1283EA002383EAC00383EA20130B8046
:1002A00070472DE9F04104460E4615461CB9E9B2E7
:1002B000304605F07DFB012C03D1E9B2304605F054
:1002C00039FB022C07D1002703E0F05D05F04DFE5D
:1002D0007F1CAF42F9DBBDE8F081014601EB410034
:1002E000FE4A02EB800070472DE9FF4F85B088463B
:1002F00015461C460598FFF7F0FF0646FE208DF8D0
:1003000008008DF80940B0798DF80A00F4480078AB
:100310008DF80B00F24840788DF80C008DF80D80B8
:10032000B079401CB0710DF109074FF0050900BF0D
:100330004FF6FF70009000BF04E017F8010B69460C
:10034000FFF79EFFB9F10000A9F101011FFA81F941
:10035000F3D1BDF80000049004AFA946A246CB46F5
:1003600004E01BF8010B3946FFF78AFFBAF10000E1
:10037000AAF101011FFA81FAF3D100BF04A9129872
:10038000FFF77EFFBDF81000C0B28DF80400BDF885
:10039000100000128DF80500062202A9059800F051
:1003A0009FFC22462946059800F09AFC022201A9EA
:1003B000059800F095FC09B0BDE8F08F70B50546D2
:1003C0000C46E078821DA11C28460BF03DFAE0782F
:1003D000801D461920783070208800127070E078F7
:1003E000083070BD014601EB0110BE4A02EB00105F
:1003F00070472DE9F04781460E4690461F46484615
:10040000FFF7F0FF05464846FFF767FF04464FF049
:10041000000A00202070E0780A2811D2DFE800F0FE
:10042000050611302838404D5E7F00BFFE2E07D1F3
:100430000220E0700020E870AE70284600F05AFC00
:1004400091E0207850B16078401C6070A078401C2A
:10045000A070002020700120E07008E0EE70002005
:1004600020713146284600F04BFC0420E0707AE011
:100470002E713146284600F043FC0320E07072E004
:100480006E713146284600F03BFC0520E0706AE0C2
:10049000AE713146284600F033FC0620E07062E081
:1004A000EE713146284600F02BFCE87810B90820A0
:1004B000E07001E00720E07055E02179481C2071D0
:1004C00005F1080046543146284600F019FC207911
:1004D000E978884201D10820E07044E0E879824A56
:1004E000115C284600F00CFC2878B04210D0A078AF
:1004F000401CA070002020700120E070FE2E0DD165
:100500000220E0700020E870284600F0F3FB05E0D0
:100510000920E070217905F10800465423E028887D
:10052000B6EB202F10D0A078401CA07000202070C7
:100530000120E070FE2E15D10220E0700020E8704E
:10054000284600F0D7FB0DE001202070E0702079F4
:10055000401C05F108010E544FF4887229464046AC
:100560000BF072F900BF00BF0AF1010A20780128E0
:1005700008D128796071208908B90020608120891C
:10058000401C20816079401C787120893881A078D6
:1005900078810020A0702078BDE8F0872DE9FF4722
:1005A00007460C4615461E46DDE90C98CDF804902A
:1005B0008DF808408DF809508DF80A608DF80B8091
:1005C00003208DF80C003220092301AA002100909D
:1005D0003846FFF789FEBDE8FF872DE9F04F2DED86
:1005E000028B89B082460C46B0EE408A1746984688
:1005F000DDF850B08DED028AADF80C80ADF80EB08C
:100600008DF820700DF110092546102625B93146C8
:1006100048460BF090F904E03246294648460BF074
:1006200013F900BFDC20192302AA162100905046BE
:10063000FFF75AFE09B0BDEC028BBDE8F08F7CB528
:1006400006460C461546ADF804408DF806508F203E
:10065000032301AA4D2100903046FFF745FE7CBDE3
:10066000224890ED000ABCEEC00A10EE100A1C49A8
:1006700008701E4890ED010ABCEEC00A10EE100A88
:10068000487070471CB5002000900190174890ED0D
:10069000040ABCEEC00A10EE100AC2B2134890ED74
:1006A000030ABCEEC00A10EE100AC1B200231846BD
:1006B000FFF774FF0020009001900C4890ED040AB1
:1006C000BCEEC00A10EE100AC2B2084890ED030A50
:1006D000BCEEC00A10EE100AC1B209E0BE22002032
:1006E000B4220020EE2200201ABE0008F4360120B9
:1006F00000230220FFF752FF1CBD08B5FE4800682A
:10070000262836D2FC48008880B20090FB48FA4A7E
:10071000126800EB8200D0ED000AB0EE600AF648E5
:100720000068C0EB0012F548983011182623092202
:100730000020FFF752FFF048008880B20090EF4899
:10074000ED4A126800EB8200D0ED000AB0EE600ABC
:10075000E9480068C0EB0012E848983011182623D9
:1007600009220220FFF739FFE3480068401CE249F4
:10077000086008BD2DE9F047C2B006460D46012EBF
:1007800019D129466846FFF719FE044622466946F4
:100790000020FFF786FDD94890ED190AB5EEC00A92
:1007A000F1EE10FA04D0A2B269460220FFF779FDFB
:1007B00042B0BDE8F0870EB1022E0AD12946684644
:1007C000FFF7FCFD0446224669460120FFF769FD5C
:1007D00000BFE87915287DD004DC04287BD01428DC
:1007E0007AD104E0172878D04C28F9D1E2E13DAC69
:1007F000142205F1080120460BF026F800BF9DF8F1
:10080000F610BE4890ED000ABCEEC00A10EE100AC9
:10081000C0B281426ED19DF8F710B84890ED010A40
:10082000BCEEC00A10EE100AC0B2814262D13EAFE7
:100830009DF8F800401C08B3BDF9F400002858DB0F
:10084000BDF9F400262854DABDF8F40080B2009017
:10085000BDF9F400A94A02EB8000D0ED000AB0EE29
:10086000600ABDF9F400C0EB0012A44898301118DA
:10087000262309223046FFF7B0FE3AE0002436E096
:100880004FF00108002013E0C4EB04129B4998319B
:100890001144095C3A5C914201D04FF00008C4EB6E
:1008A0000412964998311144095C01B902E0401CD8
:1008B0000F28E9DB00BFB8F1000F17D0A0B20090FD
:1008C0008E4800EB8400D0ED000AB0EE600AC4EB65
:1008D000041203E00FE041E1ACE110E087489830FA
:1008E0001118262309223046FFF777FE641C262CB8
:1008F000C6DB00BF9FE100207F4908609BE13CAC64
:10090000172205F1080120460AF0E3FF00BF9DF819
:10091000F4107A4890ED000ABCEEC00A10EE100AFE
:10092000C0B2814275D19DF8F510744890ED010A6E
:10093000BCEEC00A10EE100AC0B28142F2D1A71D6F
:10094000002406E14FF00108002013E0C4EB04127C
:100950006A4998311144095C3A5C914201D04FF0E8
:100960000008C4EB0412654998311144095C01B9CF
:1009700002E0401C0F28E9DB00BFB8F1000F7CD07B
:100980005E4800EB840090ED000ADDED3C0AB4EE19
:10099000600AF1EE10FA71D03C9820F00041C1F1EC
:1009A000FF41C90F002969D13C984FF07F41B1EB5D
:1009B000400F01D1012100E00021002975D15048EC
:1009C000005D002871D09DED3C0A4C4800EB84008E
:1009D00080ED000A242C0FD19DED3C0ABCEEC00A2C
:1009E00010EE101AC8B204F011FC04F062F800F026
:1009F00018FC03F037F82EE00E2C03D00F2C01D09A
:100A0000102C07D104F055F800F00BFC03F02AF885
:100A100021E0A2E01B2C15D104F0C9F900F001FC83
:100A200003F020F8354890ED1B0AB5EEC00AF1EE50
:100A300010FA03D033A000F062FF0CE036A000F003
:100A40005EFF08E0112C02D102F0A8F803E0214675
:100A500037A000F063FFA0B20090284800EB8400AC
:100A6000D0ED000AB0EE600AC4EB041223489830BF
:100A7000111826230922002001E03CE015E0FFF7D1
:100A8000ACFDA0B200901D4800EB8400D0ED000A40
:100A9000B0EE600AC4EB04121848983011182623EF
:100AA00009220220FFF799FD25E0A0B2009013482B
:100AB00000EB8400D0ED000AB0EE600AC4EB041233
:100AC0000E4898301118262309220020FFF785FDD3
:100AD000A0B20090094800EB8400D0ED000AB0EE0F
:100AE000600AC4EB04120548983011182623092225
:100AF0000220FFF772FD2BE000000020F4360120F9
:100B0000C639012043616C6962726174696F6E203D
:100B10004D6F6465204F6E0043616C696272617451
:100B2000696F6E204D6F6465204F6666000000009F
:100B3000506172616D657465722072656365697676
:100B400065642C20706172616D206964203D000035
:100B5000641C262CFFF6F6AE00BF6CE03EAC0E2205
:100B600005F1080120460AF0B4FE00BF9DF804011B
:100B7000F8B99DF80501E0B902F066FF3C904FF02E
:100B800000086C7995F806903C9800F0FF0A409FA9
:100B9000CDE938783A948DF8EC908DF8EDA0ED2001
:100BA0000E2338AA042100903046FFF79DFB00BFBA
:100BB00000BF40E039AC212205F1080120460AF0CF
:100BC00088FE00BFBDF80001F6282AD19DED390A44
:100BD000BDEEC00A10EE100A012809D1BDF80011BF
:100BE00000223046FFF72BFD002004F010F917E03B
:100BF0009DED390ABDEEC00A10EE100A032809D196
:100C0000BDF8001100223046FFF719FD012004F065
:100C1000FEF805E0BDF8001104223046FFF70FFD95
:100C200006E0BDF8001103223046FFF708FD00BFC3
:100C300000BF00E000BF00BF00BFB9E510B5C8B0FD
:100C400000200190029003900EE004F021FF044682
:100C500001AB04AA21460020FFF7CBFB18B104A981
:100C60000020FFF787FD00BF04F0EAFE0028ECD16A
:100C700048B010BD10B5C8B000200190029003909C
:100C80000EE004F0E7FE044601AB04AA2146012071
:100C9000FFF7AFFB18B104A90120FFF76BFD00BF00
:100CA00004F0C4FE0028ECD148B010BD00B5C9B0B6
:100CB00000200290039004900BE002AB05AA9DF87F
:100CC00004100220FFF795FB18B105A90220FFF7D9
:100CD00051FD01A805F07EF90028EED149B000BD14
:100CE00070B504460D461646324629462046FFF7A3
:100CF000D8FA70BD00BF4FF6FF71018000BF70478A
:100D000070B504460D4621462846FFF7B9FA70BD76
:100D100002460B7883EA020080EA0013D8B20B88FF
:100D20001B1283EA002383EAC00383EA20130B80AB
:100D300070472DE9FF4F85B0884615461C4605983B
:100D4000FFF7CBFA0646FE208DF808008DF8094023
:100D5000B0798DF80A00FE4800788DF80B00FC4849
:100D600040788DF80C008DF80D80B079401CB07182
:100D70000DF109074FF0050900BF4FF6FF70009015
:100D800000BF04E017F8010B6946FFF7C1FFB9F196
:100D90000000A9F101011FFA81F9F3D1BDF80000AB
:100DA000049004AFA946A246CB4604E01BF8010B11
:100DB0003946FFF7ADFFBAF10000AAF101011FFAB1
:100DC00081FAF3D100BF04A91298FFF7A1FFBDF883
:100DD0001000C0B28DF80400BDF8100000128DF8AC
:100DE0000500062202A9059800F0A8FC2246294623
:100DF000059800F0A3FC022201A9059800F09EFCD2
:100E000009B0BDE8F08F2DE9F043C1B081460F462F
:100E10001446ADF804700DF106082546FD2625B9E7
:100E2000314640460AF087FD04E0324629464046F6
:100E30000AF00AFD00BFDF20FF2301AA83210090F2
:100E40004846FFF776FF41B0BDE8F08308B539208A
:100E50008DF8000005208DF8010002208DF80200B9
:100E600001208DF80300684605F013FC01220821DB
:100E7000B84805F0A8FE01221021B64805F0A3FEEF
:100E800008BD10B50121B34805F010FE012005F0A2
:100E9000D6FC012005F0E2FCFFF7D8FF10BD0020D2
:100EA000AD490860704710B594B00446FFF7F7FFEE
:100EB0000121084606F0CBFB0020ADF84000ADF85C
:100EC0004200ADF84400ADF84600ADF84800ADF87A
:100ED0004A00ADF84C000121880506F0A7FB9D48AB
:100EE00005F008FD4FF0007001909C4802909C486E
:100EF0000390002004902046E11704EB91718910C3
:100F00000591002006904FF48060079080000890C3
:100F10008000099080110A9040020B9000200C90F4
:100F200003200D9000200E900F9000228D498948DB
:100F300005F0E3FD0121874805F0EBFD10A805F061
:100F40001FFC01A9834805F077FD14B010BD10B552
:100F500086B0854890ED0B0AD0ED0C0A20EE200AF1
:100F6000BCEEC00A10EE100A84B2002007E0002197
:100F70007B4A11547B4A11547C4A1154401CA042B4
:100F8000F5DB01211F2006F051FB0D2204217848DA
:100F900005F07DFF0D220621754805F078FF0D2232
:100FA0000621744805F073FF0D220721714805F0F2
:100FB0006EFF0D220621704805F069FF0D22072102
:100FC0006D4805F064FF0D220A216B4805F05FFFB4
:100FD0000D220C21684805F05AFF0D2200216748B8
:100FE00005F055FF0D220121644805F050FF0D2248
:100FF0000421624805F04BFF0D2205215F4805F0F2
:1010000046FF0D2206215D4805F041FF5020049067
:1010100002208DF8140003208DF8150000208DF8B3
:10102000160001208DF8170004A9514805F0A4FE10
:10103000C020049004A94F4805F09EFE4FF4A6502E
:10104000049004A94C4805F097FE7320049004A96D
:101050004A4805F091FE0121880506F01AFB01219E
:10106000022006F0E3FA04220A21424805F00FFFAD
:1010700004220B213F4805F00AFF4FF44060049022
:1010800002208DF8140000208DF8150001208DF845
:10109000160000208DF8170004A9364805F06CFEF4
:1010A000374805F029FF0121354805F0CAFF002027
:1010B000ADF804004BF6FF70ADF80600FE20ADF869
:1010C00008004FF48060ADF80A000001ADF80C0094
:1010D0002C48009069462A4805F037FF0C20049000
:1010E00001208DF8140000208DF816008DF81500F1
:1010F0008DF8170004A91E4805F03EFE0C211C487F
:1011000005F0B8FE06B010BD00B58BB0012102207D
:1011100006F0BFFA0121042006F088FA4FF480702F
:10112000099002208DF8280003208DF82900002066
:101130008DF82A0001208DF82B0009A90E4805F032
:101140001BFE022208210C4805F0A1FE03201BE033
:10115000B422002028640240080000202800055026
:101160002E2700204E7F0020F43601206ED700206D
:10117000000002400004024000080240001002404B
:1011800000580040A086010007900020ADF818002C
:10119000ADF82000ADF81A0006A9FE4806F02DFEB5
:1011A0006020ADF804000020ADF810000120ADF87B
:1011B00006000220039001A9F64806F039FF082135
:1011C000F44807F052F80121F24806F081FE0121AF
:1011D000F04806F09BFE0BB000BD10B5FFF794FF82
:1011E000FFF7B5FEEC4991ED0B0AD1ED0C0A20EEAC
:1011F000200ABCEEC00A10EE101A88B2FFF753FEA8
:1012000003F057FCFFF73DFE10BD10B50021E34889
:1012100005F04CFC002005F012FB002005F01EFB41
:1012200010BD10B5FFF7F1FFDB4890ED1B0AB5EEDE
:10123000C00AF1EE10FA04D045F62000FFF733FEA5
:101240000DE0D54991ED0B0AD1ED0C0A20EE200AF4
:10125000BCEEC00A10EE101A88B2FFF724FEFFF7AA
:1012600010FE10BD10B500BFCD4800680428FBD3A8
:101270000020CB490860FFF704FE10BD10B5012027
:1012800005F027FB10B1012005F02FFB10BD10B5B4
:10129000C24805F04EFC08B3C2480078012805D1C9
:1012A0000022C149BD4805F03FFC0EE0BD48007872
:1012B000022805D10022BD49B84805F035FC04E0FC
:1012C0000022BB49B54805F02FFCBA480478B54860
:1012D0000078B8490870B348047022E0B14800783B
:1012E000012805D1C204B049AC4805F01DFC0FE04F
:1012F000AC480078022805D18204AC49A74805F023
:1013000013FC05E04FF40022A949A44805F00CFCA9
:10131000A9480478A3480078A7490870A148047038
:1013200000BF02F091FBA5490968401AA449086072
:1013300002F08AFBA1490860A248007838B1A248AF
:1013400000689F49096808449F49086003E09C4879
:1013500000689D4908609B480078401C99490870C6
:1013600010BD10B599498D4805F04AFC40B3974926
:101370008A4805F06FFC8A480068401C884908606C
:10138000854890ED1B0AB5EEC00AF1EE10FA16D0B2
:1013900008460068042812D3FFF737FF7F4805F09E
:1013A000C8FB8B4908707F4800788A4908708148DB
:1013B000007889490870804800788849087010BD15
:1013C0008749764805F01CFC18B18549734805F03B
:1013D00041FCFFF75CFF00BFF1E7824800687047FF
:1013E0006F4800687047F0B50C46056821680160D9
:1013F000256000BF734909789942FBDB0021714EDB
:10140000317071490968774E316066490978012960
:101410000AD1002105E0644E765C07687E544E1CBC
:10142000B1B29142F7DB18E05E49097802290AD18E
:10143000002105E05D4E765C07687E544E1CB1B21B
:101440009142F7DB09E0002105E0594E765C076820
:101450007E544E1CB1B29142F7DBF0BD2DE9F04F46
:10146000C9B006460F4602240320DFF87C814FF402
:10147000BC794FF0F00A059040F265100690FD200F
:101480004FF0640B0790CDF80480ADF80890ADF8EC
:101490000AA00698ADF80C0005988DF80E00079884
:1014A0008DF80F008DF810B01D200D2301AA8221A8
:1014B00000902046FFF73DFC00BF0020489000252B
:1014C00000241AE145F6200094FBF0F100FB1140E6
:1014D00010B90CB1681CC5B2FD2094FBF0F100FB03
:1014E000114060B95CB108AA02204899FFF78BFC53
:1014F0004898401C80B24890022002F0ABFA7DB9B7
:1015000045F6200094FBF0F100FB11403168085CC7
:10151000FD2194FBF1F201FB124108AA5054EBE0CB
:10152000012D0FD145F6200094FBF0F100FB114096
:101530003968085CFD2194FBF1F201FB124108AA15
:101540005054D9E0022D64D12248007801280FD1EF
:1015500045F6200094FBF0F100FB11401249085CB5
:10156000FD2194FBF1F201FB124108AA5054C3E0A3
:101570001848007802283CD145F6200094FBF0F191
:1015800000FB11400949085CFD2194FBF1F201FBCD
:1015900012412BE000040040F43601202864024090
:1015A000080000201B0000202E2700204E7F002076
:1015B0006ED70020190000201A0000200C00002027
:1015C00010000020040000201400002000880010FB
:1015D0001C0000201D0000201E0000201F00002015
:1015E00000440010200000208060010008AA505430
:1015F00082E045F6200094FBF0F100FB11405449D5
:10160000085CFD2194FBF1F201FB124108AA505441
:1016100072E050480078B8B34F48007801280FD1E5
:1016200045F6200094FBF0F100FB11404B49085CAB
:10163000FD2194FBF1F201FB124108AA50545BE03A
:101640004548007802280FD145F6200094FBF0F1C0
:1016500000FB11404249085CFD2194FBF1F201FBC3
:10166000124108AA505447E045F6200094FBF0F1DF
:1016700000FB11403649085CFD2194FBF1F201FBAF
:10168000124108AA505437E0FFE736480078012895
:101690000FD145F6200094FBF0F100FB11402F49DB
:1016A000085CFD2194FBF1F201FB124108AA5054A1
:1016B00022E02C48007802280FD145F6200094FB48
:1016C000F0F100FB11402649085CFD2194FBF1F28A
:1016D00001FB124108AA50540EE045F6200094FB8D
:1016E000F0F100FB11401A49085CFD2194FBF1F276
:1016F00001FB124108AA5054641C1B488442FFF6A7
:10170000E1AE08AA02204899FFF77DFB49B0BDE889
:10171000F08F08B54E208DF8000005208DF80100EF
:1017200002208DF8020001208DF80300684604F0C5
:10173000B0FF0121084605F0A3F808BD70B50446C6
:101740000D461646324629462046FEF7AAFD70BDD4
:101750006ED700201C0000201E0000202E27002035
:101760004E7F00201F0000208060010002460B78A1
:1017700083EA020080EA0013D8B20B881B1283EAC6
:10178000002383EAC00383EA20130B8070472DE90E
:10179000FF4F85B0884615461C460598FEF79DFD0F
:1017A0000646FE208DF808008DF80940B0798DF8C6
:1017B0000A00C34800788DF80B00C14840788DF8C6
:1017C0000C008DF80D80B079401CB0710DF1090747
:1017D0004FF0050900BF4FF6FF70009000BF04E016
:1017E00017F8010B6946FFF7C1FFB9F10000A9F135
:1017F00001011FFA81F9F3D1BDF80000049004AF94
:10180000A946A246CB4604E01BF8010B3946FFF778
:10181000ADFFBAF10000AAF101011FFA81FAF3D17C
:1018200000BF04A91298FFF7A1FFBDF81000C0B2D5
:101830008DF80400BDF8100000128DF80500062296
:1018400002A9059800F032F922462946059800F0D1
:101850002DF9022201A9059800F028F909B0BDE888
:10186000F08F2DE9F0438FB081460F4614468DF876
:1018700008700DF109082546322625B93146404643
:101880000AF059F804E032462946404609F0DCFFE8
:1018900000BF5320332302AAFD2100904846FFF7E2
:1018A00076FF0FB0BDE8F083014686480078864A8F
:1018B0001278801A012806D08248007840B9824800
:1018C00000780F2804D10120804A10700020704752
:1018D0007D4A1278501CC21700EB12721211A0EB55
:1018E0000212794B1A707A480088401C784A10809E
:1018F00078481A46127840F822100120E7E710B520
:1019000004462046FFF7D0FF30B1002072496E4AEE
:1019100012788854012010BD0020FCE770B5054600
:101920000C462846FFF7C0FF50B16C48664909785D
:1019300040F8214001206849634A1278885470BDFC
:101940000020FCE710B52DED028B0446B0EE408A76
:101950002046FFF7A9FF78B161485B49097800EBA1
:10196000810080ED008A02205B49574A1278885432
:101970000120BDEC028B10BD0020FAE710B58EB03F
:10198000514800784F490978884201D10EB010BD06
:101990004C490978481CC11700EB11710911A0EBE3
:1019A0000111484A1170342101A809F0E6FF4A48A4
:1019B00044490978405C20B101280CD0022853D159
:1019C00032E044483F4A127850F82210322201A8EF
:1019D00009F0FAFF49E03F483A4A127850F82210DD
:1019E000322201A809F0DBFE32223EA101A809F053
:1019F000D6FE3A483349097850F8210000EE900AA3
:101A0000F8EEE00AB0EE600A04F032FC044632223E
:101A1000214601A809F0C3FE01A809F0F6FE801EC8
:101A200001A900220A5420E02A48264A127850F8D8
:101A30002210322201A809F0B2FE322229A101A807
:101A400009F0ADFE26481F49097800EB8100D0ED72
:101A5000000AB0EE600A04F00BFC04463222214674
:101A600001A809F09CFE00E090E700BF174800784D
:101A700028B12B208DF804000020144908700020A4
:101A80008DF8350001AA00210846FFF7EAFE164846
:101A900090ED1A0AB5EEC00AF1EE10FA04D001AAD0
:101AA00000210220FFF7DDFE00BF6FE770B504469E
:101AB0000D461646324629462046FEF7F2FB70BD1B
:101AC000B42200202500002024000020280000204F
:101AD00026000020A02F0120902F0120E02F0120C0
:101AE0002030012020000000F43601202DE9F04FC5
:101AF00004460D4605F1020902F1020A0AFB0399A8
:101B00001FFA89F14FF0000909FB031954F80990F5
:101B10004FF0010A0AFB031A54F80AA079FB0AF0F5
:101B20004FF0010909FB031954F809904FF0020A1C
:101B30000AFB031A54F80AA079FB0A004FF00209C5
:101B400009FB031954F809904FF0030A0AFB031A22
:101B500054F80AA079FB0A004FF0000909FB0319A9
:101B600014F809904FEA09694FF0010A0AFB031AB9
:101B700014F80AA049EA0A494FF0020A0AFB031ABC
:101B800014F80AA049EA0A294FF0030A0AFB031ACB
:101B900014F80AA049EA0A0C01F101094FF0000A01
:101BA0000AFB039914F809904FEA096A01F1010947
:101BB0004FF0010B0BFB039914F809904AEA094A0C
:101BC00001F101094FF0020B0BFB039914F8099086
:101BD0004AEA092901F1010A4FF0030B0BFB03AAA2
:101BE00014F80AA049EA0A0601F102094FF0000AB6
:101BF0000AFB039914F809904FEA096A01F10209F6
:101C00004FF0010B0BFB039914F809904AEA094ABB
:101C100001F102094FF0020B0BFB039914F8099034
:101C20004AEA092901F1020A4FF0030B0BFB03AA50
:101C300014F80AA049EA0A0701F103094FF0000A63
:101C40000AFB039914F809904FEA096A01F10309A4
:101C50004FF0010B0BFB039914F809904AEA094A6B
:101C600001F103094FF0020B0BFB039914F80990E3
:101C70004AEA092901F1030A4FF0030B0BFB03AAFF
:101C800014F80AA049EA0A087CFB060076FB070064
:101C900077FB0800BDE8F08F2DE9FF4F88B00746BD
:101CA0000E46DDE91754DDE90A0A0AFB040082B298
:101CB000DDE9150A0AFB040081B2002007E04FF0BD
:101CC000000A45F820A000F1010A1FFA8AF008284E
:101CD000F5DB0020ECE100FB041A56F80AB001F134
:101CE000010A00FB04AA56F80AA08BFA6AF300F175
:101CF000010A0AFB041A56F80AA001F1010B00F1CF
:101D0000010E0EFB04BB56F80BB08AFA6BF800FB11
:101D1000041A56F80AA0F3460BFB041B56F80BB046
:101D20008AFA6BF9A1F1010AF3460BFB04AA56F8F3
:101D30000AA00BFB041B56F80BB08BFA6AFACDF81D
:101D40001CA0A1F1010A00FB04AA56F80AA000FB9E
:101D5000041B56F80BB08BFA6AFCA1F1010AA0F142
:101D6000010B0BFB04AA56F80AB0A0F1010A0AFB0A
:101D7000041A56F80AA08AFA6BFACDF818A000FBEC
:101D8000041A56F80AB0A0F1010A0AFB041A56F820
:101D90000AA08BFA6AFACDF814A0A0F1010A0AFB96
:101DA000041A56F80AE0A0F1010A01F1010B0AFB3E
:101DB00004BA56F80AA08EFA6AFACDF810A083FA8F
:101DC00068FACDF80CA0DDF81CA08AFA6CFACDF800
:101DD00008A0DDF818A08CFA6AFACDF804A0DDF8A6
:101DE00010A08AFA63FACDF800A000FB042A57F885
:101DF0000AA0D5F800B07AFB03BAC5F800A000FB32
:101E0000042A57F80AB0D5F804E0DDF80CA07BFBF3
:101E10000AEAC5F804A000FB042A57F80AA0D5F87E
:101E200008B07AFB09BAC5F808A000FB042A57F8E5
:101E30000AB0D5F80CE0DDF808A07BFB0AEAC5F88B
:101E40000CA000FB042A57F80AA0D5F810B07AFBC2
:101E50000CBAC5F810A000FB042A57F80AB0D5F850
:101E600014E0DDF804A07BFB0AEAC5F814A000FB2F
:101E7000042A57F80AB0D5F818E0DDF814A07BFB67
:101E80000AEAC5F818A000FB042A57F80AB0D5F8EA
:101E90001CE0DDF800A07BFB0AEAC5F81CA001F1FC
:101EA000040A00FB04AA56F80AB001F1050A00FB77
:101EB00004AA56F80AA08BFA6AF301F1040A00F1A9
:101EC000010B0BFB04AA56F80AA001F1050B00F167
:101ED000010E0EFB04BB56F80BB08AFA6BF801F149
:101EE000040A00FB04AA56F80AA001F1040B0EFB39
:101EF00004BB56F80BB08AFA6BF901F1040AF346F9
:101F00000BFB04AA56F80AA001F1030B0EFB04BB5D
:101F100056F80BB08AFA6BFACDF81CA001F1040A4E
:101F200000FB04AA56F80AB001F1030A00FB04AA58
:101F300056F80AA08BFA6AFCA0F1010A01F1040B21
:101F40000AFB04BA56F80AE0A0F1010A01F1030BFA
:101F50000AFB04BA56F80AA08EFA6AFACDF818A05D
:101F600001F1040A00FB04AA56F80AE0A0F1010AF4
:101F700001F1040B0AFB04BA56F80AA08EFA6AFAB9
:101F8000CDF814A0A0F1010A0AFB04BA56F80AE041
:101F9000A0F1010A01F1050B0AFB04BA56F80AA0E8
:101FA0008EFA6AFACDF810A083FA68FACDF80CA080
:101FB000DDF81CA08AFA6CFACDF808A0DDF818A0AC
:101FC0008CFA6AFACDF804A0DDF810A08AFA63FA58
:101FD000CDF800A002F1040A00FB04AA57F80AA0F9
:101FE000D5F800B07AFB03BAC5F800A002F1040AE4
:101FF00000FB04AA57F80AB0D5F804E0DDF80CA0FD
:102000007BFB0AEAC5F804A002F1040A00FB04AA5B
:1020100057F80AA0D5F808B07AFB09BAC5F808A0A5
:1020200002F1040A00FB04AA57F80AB0D5F80CE044
:10203000DDF808A07BFB0AEAC5F80CA002F1040A4F
:1020400000FB04AA57F80AA0D5F810B07AFB0CBA26
:10205000C5F810A002F1040A00FB04AA57F80AB060
:10206000D5F814E0DDF804A07BFB0AEAC5F814A05B
:1020700002F1040A00FB04AA57F80AB0D5F818E0E8
:10208000DDF814A07BFB0AEAC5F818A002F1040AE7
:1020900000FB04AA57F80AB0D5F81CE0DDF800A050
:1020A0007BFB0AEAC5F81CA000F1010A1FFA8AF0BE
:1020B0000828FFF610AE00200CB0BDE8F08F2DE927
:1020C000F04F05460E461746DDE909C80B9C03FB99
:1020D00004791FFA89F108FB04C91FFA89F24FF04D
:1020E000000909FB041955F809904FF0000A0AFB92
:1020F000042A56F80AA079FB0AF001F104094FF00E
:10210000000A0AFB049955F809A002F104094FF0EE
:10211000000B0BFB049956F809907AFB09004FF06D
:10212000010909FB041955F809904FF0010A0AFB4F
:10213000042A56F80AA079FB0A0001F104094FF0BD
:10214000010A0AFB049955F809A002F104094FF0AD
:10215000010B0BFB049956F809907AFB09004FF02C
:10216000020909FB041955F809904FF0020A0AFB0D
:10217000042A56F80AA079FB0A0001F104094FF07D
:10218000020A0AFB049955F809A002F104094FF06C
:10219000020B0BFB049956F809907AFB09004FF0EB
:1021A000030909FB041955F809904FF0030A0AFBCB
:1021B000042A56F80AA079FB0A0001F104094FF03D
:1021C000030A0AFB049955F809A002F104094FF02B
:1021D000030B0BFB049956F809907AFB09004FF0AA
:1021E000040909FB041955F809904FF0040A0AFB89
:1021F000042A56F80AA079FB0A0001F104094FF0FD
:10220000040A0AFB049955F809A002F104094FF0E9
:10221000040B0BFB049956F809907AFB09004FF068
:10222000050909FB041955F809904FF0050A0AFB46
:10223000042A56F80AA079FB0A0001F104094FF0BC
:10224000050A0AFB049955F809A002F104094FF0A8
:10225000050B0BFB049956F809907AFB09004FF027
:10226000060909FB041955F809904FF0060A0AFB04
:10227000042A56F80AA079FB0A0001F104094FF07C
:10228000060A0AFB049955F809A002F104094FF067
:10229000060B0BFB049956F809907AFB09004FF0E6
:1022A000070909FB041955F809904FF0070A0AFBC2
:1022B000042A56F80AA079FB0A0001F104094FF03C
:1022C000070A0AFB049955F809A002F104094FF026
:1022D000070B0BFB049956F809907AFB0900BDE83F
:1022E000F08F2DE9FF4F2DED040B2DED0A8BCDB0B6
:1022F000B0EE408AF0EE608AB0EE41CAFE4890ED42
:102300000D0AB1EE400ABDEEC00A10EE100A00B28E
:102310004990F94890ED0D0ABDEEC00A10EE100A82
:1023200000B2489049994898401A401C4000401C0F
:102330001FFA80F8F04890ED0D0AF7EE000A30EE33
:10234000200ABCEEC00A10EE100A80B24790EA489C
:1023500090ED0B0AD0ED0D0AB7EE001A70EE810A6F
:1023600030EE600AF2EE000A30EE600ABCEEC00AFF
:1023700010EE100A80B2469047994698411A0520FF
:1023800091FBF0F0401C80B24590CDF82C81DDF837
:102390002C814FEA480009F09FF98246CDF8288148
:1023A000DDF828814FEA480009F096F983469FED51
:1023B000D30AB0EE40BA9FEDD10AF0EE40BA4FF02A
:1023C00000099FEDCE0AB0EE409A9FEDCC0AF0EEE8
:1023D000409A002506E000202AF815002BF8150089
:1023E000681C85B24545F6DB479D38E1479C2FE1E7
:1023F000C14890ED0B0ABCEEC00A10EE100A83B281
:102400002A4621465B98FFF771FB0AEE100ABA488C
:1024100090ED1D0AF8EE4A0AB4EEE00AF1EE10FA69
:1024200000DD12E14FF0FF300B9000260027B2488C
:1024300090ED0B0ABCEEC00A10EE100A81B25B9858
:1024400005FB010020440890499840B209903EE005
:1024500009982918A84890ED0B0ABCEEC00A10EEA6
:10246000100A82B25C9801FB020020440790499850
:1024700040B20A9023E0A04890ED0B0ABCEEC00ADF
:1024800010EE100A81B20998284480B20A9A2244B8
:1024900092B22B46CDE90020029122465C995B98CE
:1024A000FFF70DFE06900B990698884203D20A9E0C
:1024B000099F06980B900A98401C40B20A904899D0
:1024C0000A988842D7DD0998401C40B20990489983
:1024D00009988842BCDD8848D0ED1E0A9DED0B0AA4
:1024E000B8EE400AF4EEC00AF1EE10FA7EDD00EE1E
:1024F000106AB8EEC00A3BEE000AB0EE40BA00EE39
:10250000107AB8EEC00A3BEE800AF0EE40BA90EDC9
:102510000B0ABCEEC00A10EE100A81B23DABE819FE
:1025200080B2A21992B2CDE90231CDE900202B464A
:1025300022465C995B98FFF7AFFB0B980790082049
:10254000069000200CE03DA951F8202007998A420E
:1025500004D23DA951F8201007910690411CC8B241
:102560000828F0DB2DA800F809601DA800F8097004
:102570000DA9069801F8090009F101001FFA80F978
:1025800049994898401A401C022101FB0600C0B23C
:1025900005900DA8005D38B10DA8005D012803D09D
:1025A0000DA8005D072803D10598401CC0B2059016
:1025B0000DA8005D032807D00DA8005D042803D0F6
:1025C0000DA8005D052803D10598401EC0B20590F6
:1025D00049994898401A401C022101FB0700C0B2EB
:1025E00004900DA8005D052809D000E02CE00DA89E
:1025F000005D062803D00DA8005D072803D10498CC
:10260000401EC0B204900DA8005D012807D00DA89F
:10261000005D022803D00DA8005D032803D10498B3
:10262000401CC0B2049005983AF81000401C81B2DA
:1026300005982AF8101004983BF81000401C81B24D
:1026400004982BF8101000BF00BF4598204484B2B6
:1026500046988442FFF6CCAE4598284485B2469809
:102660008542FFF6C3AEB9F10A0F71DD00EE109A94
:10267000B8EE400ACBEE000AB0EE60BA00EE109A57
:10268000B8EE400ACBEE800AF0EE60BA00260027D2
:1026900000200B900A90002513E03AF815100B98D3
:1026A000814203DD3AF815000B902EB23BF815106D
:1026B0000A98814203DD3BF815000A902FB2681C8E
:1026C00085B24545E9DB0C4890ED1F0AB5EEC00A1E
:1026D000F1EE10FA7ED0B1B2B2B2BBB21FFA87FCF3
:1026E000012E0DDDA8F10200B04209DDB01E81B25D
:1026F000B01C82B220E00000F4360120000000008F
:102700001EB9B1B2B01C82B216E0A8F10100B0420D
:1027100003D1B01E81B2B2B20EE0012E04D1701E00
:1027200081B2B01C82B207E0A8F10200B04203D12E
:10273000B01E81B2701C82B2012F0ADDA8F1020026
:10274000B84206DDB81E83B2B81C1FFA80FC20E038
:10275000D1E127B9BBB2B81C1FFA80FC19E0A8F17F
:102760000100B84204D1B81E83B21FFA87FC10E002
:10277000012F05D1781E83B2B81C1FFA80FC08E037
:10278000A8F10200B84204D1B81E83B2781C1FFA27
:1027900080FC1FED260A5FED270A1FED281A5FED6A
:1027A000291AC8B21BE03AF810E00EFB00FE02EE58
:1027B00010EAB8EEC22A32EE002AB0EE420A3AF827
:1027C00010E002EE10EAB8EE422A32EE202AF0EED5
:1027D000420A00E050E000F1010E0EF0FF0002F1AD
:1027E000010E7045DFDBD8B219E03BF810E00EFBBC
:1027F00000FE02EE10EAB8EEC22A32EE012AB0EE76
:10280000421A3BF810E002EE10EAB8EE422A32EE2D
:10281000212AF0EE421A00F1010E0EF0FF000CF139
:10282000010E7045E1DBC0EE202ADDF824E1489876
:10283000A0EB0E00401C02EE100AB8EEC22A32EEE7
:10284000C22AF0EE002A82EE223AB0EE439AC1EE9E
:10285000212ADDF824E14898A0EB0E00401C02EE8E
:10286000100AB8EEC22A32EEC22AF0EE002A82EE38
:10287000223AF0EE439A77E000210022002060E047
:102880001FED621AF0EE410A0DAB1B5C3BB10DABC4
:102890001B5C012B03D00DAB1B5C072B03D1B6EEE9
:1028A000001AF0EE410A0DAB1B5C032B07D00DABF9
:1028B0001B5C042B03D00DAB1B5C052B03D1BEEEC0
:1028C000001AF0EE410A2DAB1B5601EE103AB8EE9D
:1028D000C11A31EE201A31EE091AB0EE419A491CA4
:1028E0001FED7A0A0DAB1B5C052B07D00DAB1B5CF3
:1028F000062B03D00DAB1B5C072B03D1BEEE001AD9
:10290000B0EE410A0DAB1B5C012B07D00DAB1B5C7D
:10291000022B03D00DAB1B5C032B03D1B6EE001AC8
:10292000B0EE410A1DAB1B5601EE103AB8EEC11ACB
:1029300031EE001A31EE291AF0EE419A521C431C76
:10294000D8B248459CDB00EE101AB8EE400AC9EE3A
:10295000000AB0EE609A00EE102AB8EE400AC9EE06
:10296000800AF0EE609A00BF774890ED0A0AB3EE55
:10297000081AC0EE010A9FED750A20EE80AA90EDBC
:10298000200AB5EEC00AF1EE10FA7DD000BFB0EE1D
:10299000E80AD0ED120AB4EEE00AF1EE10FA47DDD3
:1029A000FEF71BFD00EE100AF8EE400A9FED681AD4
:1029B00080EE810A20EE280A20EE0A0AF0EE40CAD4
:1029C00039EE2C0AF0EE40AA5F4890ED0D0AB1EE08
:1029D000400AF6EE000A30EE600AB4EEEA0AF1EEC2
:1029E00010FA0BDD90ED0D0AB1EE400AF6EE000A8A
:1029F00030EE600A5D9880ED000A18E0524890EDD4
:102A00000D0AF6EE000A30EE200AB4EEEA0AF1EE04
:102A100010FA09D290ED0D0AF6EE000A30EE200A07
:102A20005D9880ED000A02E05D98C0ED00AA02E02A
:102A30005D9880ED009A00BFB0EEC80A4248D0ED24
:102A4000120AB4EEE00AF1EE10FA49DDFEF7C5FC19
:102A500000EE100AF8EE400A9FED3D1A80EE810A62
:102A600020EE080A20EE0A0AF0EE40CA39EEEC0A1F
:102A7000F0EE40AA344890ED0D0AB1EE400AF6EEB1
:102A8000000A30EE600A00E02EE0B4EEEA0AF1EE51
:102A900010FA0BDD90ED0D0AB1EE400AF6EE000AD9
:102AA00030EE600A5E9880ED000A18E0264890ED4E
:102AB0000D0AF6EE000A30EE200AB4EEEA0AF1EE54
:102AC00010FA09D290ED0D0AF6EE000A30EE200A57
:102AD0005E9880ED000A02E05E98C0ED00AA09E071
:102AE0005E98C0ED009A05E05D9880ED009A5E98D2
:102AF000C0ED009A16E09FED170A5D9880ED000A80
:102B00009FED140A5E9880ED000A584608F013FE07
:102B1000504608F010FE00204DB0BDEC0A8B08B006
:102B2000BDE8F08FC9EB0920192190FBF1F0C0B28C
:102B30000C900C984C90584608F0FDFD504608F05B
:102B4000FAFD4C98E8E70000F436012000007A44D2
:102B5000002474490000000010B5044600BF0221A3
:102B6000F74805F062F80028F9D04FF48051F54895
:102B700004F080F92146F24805F020F800BF012159
:102B8000EF4805F052F80028F9D04FF48051ED4895
:102B900004F06EF9EA4805F00EF810BD10B542F2E7
:102BA000CF00FFF7D9FFE84890ED110ADFEDE70A03
:102BB000B4EE600AF1EE10FA07D14FF40C50FFF7B3
:102BC000CBFF0020E24908602FE0DF4890ED110ABA
:102BD000DFEDE00AB4EE600AF1EE10FA07D142F23E
:102BE0001030FFF7B9FF0120D94908601DE0D64831
:102BF00090ED110ADFEDD80AB4EE600AF1EE10FA9A
:102C000007D142F22030FFF7A7FF0220D049086029
:102C10000BE09FEDD00ACC4880ED110A42F2103053
:102C2000FFF79AFF0120CA490860CC48C8490968E3
:102C300000EB810090ED000ADFEDC90A80EE201A5A
:102C40009FEDC80A21EE000ADFEDC70A80EE201AC8
:102C5000C64880ED001A10BD00B587B00121880379
:102C600004F017FD0121022004F0E0FC05220D21F3
:102C7000B44804F00CF905220E21B24804F007F91B
:102C800005220F21AF4804F002F902208DF804005C
:102C90008DF8050000208DF8060002208DF8070051
:102CA000000300906946A74804F066F84FF400401E
:102CB00000906946A34804F05FF84FF4804000900C
:102CC0006946A04804F058F84FF480500090012065
:102CD0008DF8040000208DF8060002208DF8050014
:102CE00000208DF807006946964804F045F84FF437
:102CF0008051944804F0BCF80020ADF808004FF46F
:102D00008270ADF80A004FF40060ADF80C000020AE
:102D1000ADF80E000120ADF810004002ADF8120031
:102D20001020ADF814000020ADF81600ADF8180022
:102D300002A9834804F0DEFD0121814804F0BDFEB4
:102D400007B000BD10B5FFF787FFFFF727FF10BDE5
:102D50002DE9F05F0746884691469A4600BF00BFBE
:102D600000BF4FF42840FFF7F7FEC4B24FF42940EC
:102D7000FFF7F2FE44EA002004B24FF42A40FFF7C6
:102D8000EBFEC5B24FF42B40FFF7E6FE45EA00200C
:102D900005B24FF42C40FFF7DFFEC6B24FF42D40D2
:102DA000FFF7DAFE46EA002006B2714890ED000A0D
:102DB000DFED700A60EE200A00EE104AB8EEC00A9D
:102DC0009FED6D1A20EE010A684890ED001A40EE62
:102DD000010A6748C0ED000A684890ED000ADFED7F
:102DE000650A60EE200A00EE105AB8EEC00A9FEDA8
:102DF000621A20EE010A5D4890ED001A40EE010AC9
:102E00005E48C0ED000A5E4890ED000ADFED590A09
:102E100060EE200A00EE106AB8EEC00A9FED561A66
:102E200020EE010A514890ED001A40EE010A544884
:102E3000C0ED000A4E48D0ED000A00EE104AB8EE90
:102E4000C00A4A4890ED001A50EE010AC7ED000A88
:102E50004A48D0ED000A00EE105AB8EEC00A4348C6
:102E600090ED001A50EE010AC8ED000A4448D0ED7A
:102E7000000A00EE106AB8EEC00A3C4890ED001A55
:102E800050EE010AC9ED000A00BF4FF42640FFF7DB
:102E900063FE4FFA80FBCBF12800642110FB01F0A8
:102EA00000B2AAF80000BDE8F09F10B504464FF448
:102EB0008051244803F0DEFF00BF0221204804F0C7
:102EC000B4FE0028F9D021461D4804F077FE00BF6B
:102ED00001211B4804F0A9FE0028F9D0184804F08D
:102EE0006AFEC0B210BD10B5AA20FFF7DEFF10BD0C
:102EF00010B54FF48051134803F0BCFF0620FFF7D4
:102F0000D4FF4FF480510F4803F0B2FF10BD10B54D
:102F100000244FF480510B4803F0ACFF0520FFF76D
:102F2000C4FF00BFAA20FFF7C0FF044604F0010061
:102F30000028F7D14FF48051024803F099FF10BDEB
:102F40000038004000040240F436012000007A43BB
:102F50003C0000200000FA430000FA444400002036
:102F600000007A44DB0F4940000034432C0000206D
:102F70003000002072F97F3F17B7D13834000020AD
:102F8000380000200748007870470748054909685D
:102F900000EB810090ED000ABDEEC00A10EE100AB1
:102FA000704700003C0000204400002010B50020C5
:102FB000FE490870FE4803F04AFF4013FB490870C1
:102FC000FB4803F044FF8013F849097841EA4000C8
:102FD000F6490870F64803F03AFFC013F349097840
:102FE00041EA8000F14908700846017807208843CB
:102FF000EE4908700846007810BD10B5FFF7D6FFFF
:1030000042304006000E10BD00B58BB0E94803F019
:1030100073FF0121E74804F06FF80021E54804F050
:103020006BF80121480504F034FB0121022004F073
:10303000FDFA0121042004F0F9FA4FF440700990E0
:1030400002208DF828008DF8290001208DF82B0032
:103050008DF82A0009A9D84803F08EFE4FF460408D
:10306000079000208DF8200002208DF8210001201B
:103070008DF8230007A9CE4803F07EFE0422082124
:10308000CD4803F004FF04220921CB4803F0FFFEE2
:103090001F208DF8180000208DF819008DF81A00F7
:1030A00001208DF81B0006A803F0F3FA20208DF80C
:1030B000140000208DF815008DF8160001208DF801
:1030C000170005A803F0E5FA01225102B94804F0FF
:1030D000B3F801221102B74804F0AEF801229102C0
:1030E000B44804F0A9F8B54801900020ADF80800F4
:1030F0004BF6FF70ADF80A00FFF77FFFADF80C004C
:103100004FF48060ADF80E000001ADF8100001A989
:10311000A84803F01AFF0121A64803F0F8FF012197
:10312000A44803F08EFF0BB000BD10B5A14804F019
:10313000A1F8A34A811A904223D008DC10287DD040
:10314000B0F5806F7BD0B0F1021F12D108E0A1F57D
:1031500080214039B1B302290CD00429F5D133E0E4
:10316000944814300088934818300088002095490E
:1031700008707EE08F48143000888E481830008830
:1031800077E08C4804F007F88F4908708D48007884
:10319000401C8C4908708C4800788C4908708A481B
:1031A0000078162805D988480078163888490870AC
:1031B00002E0002086490870002086490870864990
:1031C000087056E0FFE700BF80480078162814D248
:1031D0008248007800EB400202EBC000804A02EB1C
:1031E00040007A4A1278815C724803F0D2FF774837
:1031F0000078401C7549087015E07A480078C0EBEB
:10320000C000794A02EB8000714A1278815C6948FB
:1032100003F0BFFF6E4800781C2804D26C48007889
:10322000401C6B49087069480078152802D30120BA
:1032300068490870664800781B2801E00FE006E046
:1032400004D30120644908706849087011E05948A6
:1032500014300088C0B257491431088009E055483D
:10326000143000885348008840F00100514908801C
:1032700000BF00BF10BD10B514214E4803F0D1FFB0
:1032800000F47F4030B14B4814300088C0B2494947
:103290001431088010BDF0B52DED0A8B8DB0B0EE65
:1032A000408AF0EE608AF0EE41BAB0EE61CA05469F
:1032B000B0EE429AF0EE629AB0EE43AAF0EE63AA44
:1032C0000F464B480088ADF81C00B2EE040A28EE09
:1032D000000ABDEEC00A10EE100A00B2ADF81E00E2
:1032E000B2EE040A28EE800ABDEEC00A10EE100A03
:1032F00000B2ADF820009FED3F0A2BEE800ABDEE34
:10330000C00A10EE100A00B2ADF822009FED390A93
:103310002CEE000ABDEEC00A10EE100A00B2ADF8A5
:103320002400ADF826509FED330A29EE000ABDEEC9
:10333000C00A10EE100A00B2ADF83000FFF725FE0B
:1033400000EE100AB8EEC00A20EE290ABDEEC00A4F
:1033500010EE100A00B2ADF82800FFF716FE00EEDE
:10336000100AB8EEC00A20EE0A0ABDEEC00A10EE3E
:10337000100A00B2ADF82A00FFF707FE00EE100AAF
:10338000B8EEC00A20EE2A0ABDEEC00A10EE100AFE
:1033900000B2ADF82C00FFF7F5FD8DF82E0000F01F
:1033A00053FB044602F02CFA261A25E050000020B8
:1033B000000802400054004000040240801A060049
:1033C000400002005B000020510000205900002056
:1033D0005A00002056000020570000205200002014
:1033E00060300120530000208C3001205800002064
:1033F0005C00002000007A44A448864207D24FF4C3
:103400007A70B6FBF0F0C0B28DF82F0002E0FF201A
:103410008DF82F009E48D0ED0A0AB3EE081A80EE10
:10342000810A5FED0C0A20EE20BA9A480078012844
:1034300023D10020984908609FED980A984880EDB4
:10344000000A9FED960A974880ED000A00209649F1
:103450000880964908809FED910A954880ED000A02
:103460009FED8E0A934880ED000A9FED8C0A9248EA
:1034700080ED000A002087490870002D5FDD00F014
:10348000E3FA8E490968441A834800682044824957
:1034900008601FED280A28EE800AC0EE0B0A80485B
:1034A00090ED000AB7EE001A00EE810A80ED000AE6
:1034B0001FED300A28EE000AC0EE0B0A794890EDA5
:1034C000000ABFEE001A00EE810A80ED000A76487D
:1034D0000088401C74490880744800882844734957
:1034E000088000EE104AB8EE400A69EE800A704883
:1034F00090ED000A9FED721A00EE810A80ED000A3D
:1035000000EE104AB8EE400A6AEE000A694890EDF3
:10351000000A9FED6B1A00EE810A80ED000A00EEB2
:10352000104AB8EE400A6AEE800A634890ED000A3D
:103530009FED631A00EE810A80ED000A00BF00F0E3
:1035400083FA5E49086058480088ADF80000584882
:1035500090ED000AF2EE040A20EE200ABDEEC00A49
:1035600010EE100A00B2ADF80600524890ED000AC5
:10357000F2EE040A20EE200ABDEEC00A10EE100A98
:1035800000B2ADF808004C4890ED000AF2EE040AD3
:1035900020EE200ABDEEC00A10EE100A00B2ADF80F
:1035A0000A003F4890ED000AF2EE040A20EE200ADD
:1035B000BDEEC00A10EE100A00B2ADF802003948A4
:1035C00090ED000AF2EE040A20EE200ABDEEC00AD9
:1035D00010EE100A00B2ADF804002F480068039006
:1035E0001FED7C0A29EE000ABCEEC00A10EE100A9C
:1035F00080B2ADF8140004962C4800882A49098846
:1036000090FBF1F0C0B28DF81800ADF816702D489F
:103610000078C0F101002C4908702C480078C0F1F6
:1036200001002B4908702849097801EB410202EB9F
:10363000C101284A02EB4100162207A908F004F94B
:1036400023490978C1EBC101234A02EB81001C2206
:10365000694608F0F9F82148007828B1194800783F
:10366000C0F10100174908701D48007828B11748BB
:103670000078C0F10100154908701A480088401C04
:10368000184908800DB0BDEC0A8BF0BD18E40300AA
:10369000F4360120580000207800002000000000CF
:1036A0006000002064000020680000206A00002004
:1036B0006C00002070000020740000207C000020BE
:1036C0006F12833A52000020540000205300002063
:1036D00055000020603001208C3001205600002071
:1036E000570000205C0000201CB504461E4951F81C
:1036F0002400012103F09AFF1C4830F814000090C8
:1037000001208DF8040000208DF8060001208DF8BE
:10371000070002208DF80500154951F8240069467C
:1037200003F02AFB1CBD10B50446104A32F81410F1
:103730000F4A52F8240003F09DFB10BD10B504465B
:103740000A4A32F814100A4A52F8240003F090FB97
:1037500010BD10B50446054A32F81410044A52F858
:10376000240003F090FB10BD24BF00081CBF00081C
:103770008000002002460B7883EA020080EA0013F2
:10378000D8B20B881B1283EA002383EAC00383EAC2
:1037900020130B8070472DE9FF4F85B088461546F2
:1037A0001C460598FCF799FD0646FE208DF808009A
:1037B0008DF80940B0798DF80A00FE4800788DF840
:1037C0000B00FC4840788DF80C008DF80D80B07926
:1037D000401CB0710DF109074FF0050900BF4FF60D
:1037E000FF70009000BF04E017F8010B6946FFF777
:1037F000C1FFB9F10000A9F101011FFA81F9F3D16C
:10380000BDF80000049004AFA946A246CB4604E0F0
:103810001BF8010B3946FFF7ADFFBAF10000AAF122
:1038200001011FFA81FAF3D100BF04A91298FFF732
:10383000A1FFBDF81000C0B28DF80400BDF8100063
:1038400000128DF80500062202A9059801F001F882
:1038500022462946059800F0FCFF022201A905989E
:1038600000F0F7FF09B0BDE8F08F70B506460C46D2
:10387000154624B92946304608F05DF804E02A468A
:103880002146304607F0E0FF70BD2DE9F0472DEDF1
:10389000048B8AB0064614461D46B0EE408AF0EE10
:1038A000608AB0EE419A16AF97E88007CDE90245ED
:1038B0008DED048ACDED058A8DED069AADF81C805C
:1038C000ADF81E908DF820708DF821A0AF201A233E
:1038D00002AA642100903046FFF75DFF0AB0BDECFC
:1038E000048BBDE8F0872DE9F04F2DED068B8FB0EE
:1038F000064614461D46B0EE408AF0EE608AB0EEF1
:10390000419AF0EE619AB0EE42AAF0EE62AA1EAFC2
:1039100097E8800FCDE90245CDF810808DED058A3E
:10392000CDED068A8DED079ACDED089A8DED09AAA9
:10393000CDF828B0CDED0BAAADF830908DF83270EF
:103940008DF833A08A202C2302AA6A2100903046E9
:10395000FFF721FF0FB0BDEC068BBDE8F08F10B56F
:1039600095480068401C9449086000200BE093498A
:1039700051F8201031B1914951F82010491E8F4A59
:1039800042F82010401C0928F1D38C48406830B917
:103990000020FFF7DEFE4FF4FA7088494860874840
:1039A000C06820B901F098FD64208449C86083484C
:1039B000006930B90120824908704FF47A707F495C
:1039C00008617E48406930B901207E4908704FF493
:1039D0007A707A4948617948806928B901207A4922
:1039E00008706420754988617448C06958B901201D
:1039F00076490870764890ED1C0ABCEEC00A10EEBD
:103A0000100A6E49C8616D48006A28B901207149E1
:103A1000087064206949086210BD10B56E480068DE
:103A2000401C6D4908606D480068401E6B49086085
:103A30000846006820B9FFF792FF642067490860D4
:103A400010BD5D48006870476348006800EB800067
:103A5000400070475949886000BF5849896800296B
:103A6000FBD1704701205E49087070472DED028B35
:103A7000E4B001F0DFF901F0C8FB0020FFF734FEED
:103A80000120FFF731FE0220FFF72EFE0020FFF796
:103A900055FE0120FFF752FE0220FFF74FFE51486E
:103AA000006840F470004F4908604F4800684F4973
:103AB000B0FBF1F051905198B0F1807F01D301201B
:103AC00026E0519820F07F40401E4FF0E0214861F1
:103AD00048174F900F2050904F9800280ADA5098BE
:103AE0000007020E3F4870384F9901F00F01091F7F
:103AF000425405E050980007020E3D494F980A5481
:103B000000BF00204FF0E0218861072008610020FD
:103B100020B10220FFF707FE00BFFEE73548364B15
:103B2000364A01210090364806F0CBFEFCF798FD9E
:103B3000FDF753FBFFF706F9002051900BE0002141
:103B400030480268519811542F4802685198115416
:103B50005198401C51901E4890ED0B0AD0ED0C0A74
:103B600060EE200A9DED510AB8EEC00AF4EEC00ADC
:103B7000F1EE10FAE3DC2348006863902248006805
:103B8000629002F059F8FFF73FFA9FED200A8DEDA1
:103B9000610A9FED1E0A8DED600A00205F9001F022
:103BA000C8FD64200549C8604FF47A700861401070
:103BB00048612DE0B422002098000020B836012092
:103BC000A4000020A5000020A6000020A7000020DF
:103BD000F4360120A80000209C000020A000002056
:103BE0009400002088ED00E0B4210020A0860100B0
:103BF00000E400E098210020402200205C21002009
:103C0000C43001208C000020900000200000000043
:103C100064208861F84890ED1C0ABCEEC00A10EEE2
:103C2000100AC86100205E905D901FED080A8DEDBE
:103C30005C0A1FED0A0A8DED5B0A1FED0C0A8DED83
:103C40005A0A1FED0E0A8DED590A1FED100A8DED6F
:103C5000580A1FED120A8DED570A1FED140A8DED5B
:103C6000560A1FED160A8DED550A54905390529046
:103C7000F6E3E248007828B30020E0490870489055
:103C80000BE00021DE48026848981154DD480268C4
:103C9000489811544898401C4890D74890ED0B0A1A
:103CA000D0ED0C0A60EE200A9DED480AB8EEC00A7D
:103CB000F4EEC00AF1EE10FAE3DC4FF4FA70FFF70D
:103CC000C9FED5E7CC4890ED1B0AB5EEC00AF1EE6F
:103CD00010FA43D035E0FDF7C5FA00BFFDF780FBD1
:103CE0000228FBD3012345F6200262A963A8FDF751
:103CF0007AFB00BFFDF774FB0328FBD3012345F6D5
:103D0000200262A963A8FDF76EFB00BFFDF768FB08
:103D10000428FBD363A962A8FDF7A0FBB64890ED89
:103D2000060AB5EEC00AF1EE10FA01D0FCF7AAFCC3
:103D3000FCF7BCFFFDF722FEFCF7DFFC0120FFF7DC
:103D400008FDAD4890ED1B0AB5EEC00AF1EE10FA81
:103D5000C1D1FDF787FA0120FFF7F0FCA64890EDEE
:103D60000B0AD0ED0C0A20EE200ABCEEC00A10EEC1
:103D7000100A80B251904DAB4EAA4FA950A8FEF741
:103D8000E7FF9DED4F0A8DED4C0A9DED500AB1EE17
:103D9000400A8DED4B0A9DED4E0A8DED4A0A96487C
:103DA00090ED0A0AB3EE081AC0EE010A9FED960ADA
:103DB00020EE800A8DED490A60A961A801F07CFC23
:103DC0005F905F9838B91FED6F0A8DED610A1FEDA6
:103DD000710A8DED600A884890ED240AB5EEC00A9C
:103DE000F1EE10FA7DD1012362A963A8519AFDF783
:103DF000FAFA5BAB5CAA9DED4A1ADDED4B0A9DED2C
:103E00004C0A63996298FEF76CFA5D90DDED5C0AEE
:103E10009DED490A80EE808AFDF7DFFA00EE100A78
:103E2000B8EE400A9FED791AC0EE010A88EE200A2A
:103E30008DED480ADDED5B0A9DED490A80EE808A32
:103E4000FDF7CBFA00EE100AB8EE400A9FED6F1AAC
:103E5000C0EE010A88EE200A8DED470A5F9800281F
:103E60007DD09DED480AB1EE400ADDED610A20EEFD
:103E7000200A8DED460A9DED470AB1EE400ADDEDC0
:103E8000610A20EE200A8DED450AFFF7DDFD0446AC
:103E900001F0B6FC201A52905D9800287EDD9DED61
:103EA000580ADDED460A30EE200A8DED580A9DEDE8
:103EB000570ADDED450A30EE200A8DED570A549879
:103EC000401C5490FFF7C0FD51490968401A4490C6
:103ED00050480168449808444E4908609DED5B1ABB
:103EE00000E0F2E09DED490AC1EE000A4A4890ED7B
:103EF000000AB7EE001A00EE810A80ED000A9DED7F
:103F00005C1A9DED490AC1EE000A444890ED000A92
:103F1000BFEE001A00EE810A80ED000ADDED4C0ACA
:103F20009DED440AB8EE400A20EE800ADFED370A24
:103F300080EE201A3A4890ED000A31EE000A80ED3A
:103F4000000ADDED4B0A9DED440AB8EE400A20EE72
:103F5000800A9FED2E1AC0EE010A324800E083E08D
:103F600090ED000A30EE800A80ED000ADDED4A0A8D
:103F70009DED440AB8EE400A20EE801A9FED230A18
:103F8000C1EE000A284890ED000A30EE800A80ED6C
:103F9000000A26480088401C244900E04AE00880C6
:103FA000234801885D980844214908801248D0EDD3
:103FB000220A9DED460A60EE800A90ED220AB7EED5
:103FC000001A31EE401A9DED560A41EE000ACDED81
:103FD000560AD0ED220A9DED450A60EE800A90ED6A
:103FE000220AB7EE001A31EE401A9DED550A41EE55
:103FF000000ACDED550A36E0F43601209400002089
:104000008C0000209000002000007A4400247449B5
:10401000C8000020C4000020AC000020B000002038
:10402000B4000020B8000020BC000020C000002028
:10403000C2000020FE4890ED220AF7EE000A70EE62
:10404000C00A9DED560A20EE800A8DED560A90EDCD
:10405000220AF7EE000A70EEC00A9DED550A20EE26
:10406000800A8DED550A18E0F14890ED220AF7EE2E
:10407000000A70EEC00A9DED560A20EE800A8DED12
:10408000560A90ED220AF7EE000A70EEC00A9DED86
:10409000550A20EE800A8DED550AFFF7D5FCE5495B
:1040A00008609DED5A0ADDED5C0A30EE200A8DEDC8
:1040B0005A0A9DED590ADDED5B0A30EE200A8DEDBE
:1040C000590A5398401C539000BF5E98401C5E9064
:1040D000D74890ED240AB5EEC00AF1EE10FA7CD173
:1040E0009FEDD50A8DED480A90ED130AB5EEC00A92
:1040F000F1EE10FA04D09DED610A8DED480A03E05F
:104100009DED600A8DED480A5498002829DDDDED0B
:10411000570A9DED540AB8EEC01A80EE810A8DED63
:10412000470ADDED580A9DED540AB8EEC01A80EE3C
:10413000810A8DED460ABDF93411DDED4A3A9DED57
:104140004B3ADDED4C2A9DED482A5D98DDED471A8E
:104150009DED461ADDED5B0A9DED5C0AFFF79BF8CD
:1041600014E0BDF93411DDED4A3A9DED4B3ADDED39
:104170004C2A9DED482ADFEDB01A9FEDAF1A5D98ED
:10418000DDED5B0A9DED5C0AFFF785F8A84890ED30
:10419000230ABCEEC00A10EE100A5E99B1FBF0F2E1
:1041A00000FB121000287DD19FEDA30A8DED470A78
:1041B0009FEDA10A8DED460A9D4890ED210AB5EECE
:1041C000C00AF1EE10FA09D09DED560A8DED470AAE
:1041D0009DED550A8DED460A20E02AE2549800280C
:1041E00014DDDDED580A9DED540AB8EEC00A80EEEC
:1041F000801A8DED471ADDED570A9DED540AB8EE91
:10420000C00A80EE801A8DED461A07E09FED8A0AFB
:104210008DED470A9FED880A8DED460AFFF714FCE5
:104220000021459144905D989DED590AF2EE040AF3
:1042300020EE200ABDEEC00A10EE101A09B29DED64
:104240005A0AF2EE040A20EE200ABDEEC00A10EE71
:10425000102A12B2764B93ED020ABCEEC00A10EEA1
:10426000103ADBB2CDE90032CDE902109DED590ADA
:10427000F2EE040A20EE200ABDEEC00A10EE100A8B
:1042800000B243909DED5A0AF2EE040A20EE200A95
:10429000BDEEC00A10EE100A00B24290644890EDE4
:1042A000020A00E0C4E1BCEEC00A10EE100AC0B27F
:1042B00041909DED481ADDED460A9DED470A00202C
:1042C000459B449AFFF7E1FA5C4800885C490988FD
:1042D00090FBF1F0C0B24590FFF7B6FB002143918F
:1042E0004290BDF93421574B529945981B68CDE94E
:1042F0000132CDE903014E4890ED020ABCEEC00A3E
:1043000010EE100AC0B20090494890ED020ABCEECF
:10431000C00A10EE100AC0B24190DDED482A4A48AA
:1043200090ED002A4948D0ED001A494890ED001A56
:104330004848D0ED000A484890ED000A0020439B11
:10434000429AFFF7D0FA3A4890ED070AB5EEC00A54
:10435000F1EE10FA2BD04148D0ED000A9DED480A4D
:104360003D4890ED001A40EE010A3C48C0ED000ABD
:10437000D0ED010A9DED480A364890ED001A40EE56
:10438000010A3648C0ED010A9DED480AB1EE400A27
:1043900080ED020A9FED280A80ED030A9FED260AB0
:1043A00080ED040A9FED240A80ED050A18E09FEDD8
:1043B000220A2A4880ED000A9FED1F0A80ED010ABB
:1043C0009FED1D0A80ED020A9FED1B0A80ED030A96
:1043D0009FED190A80ED040A9FED170A80ED050A8A
:1043E000134890ED170AB5EEC00AF1EE10FA7DD031
:1043F000FFF72AFB0021459144905D9A9DED590AF3
:10440000F2EE040A20EE200ABDEEC00A10EE100AF9
:1044100000B29DED5A0AF2EE040A20EE200ABDEE2B
:10442000C00A10EE101A09B2014B93ED020A18E00F
:10443000F4360120C800002000000000C200002067
:10444000C0000020C4000020BC000020B8000020F4
:10445000B4000020B0000020AC000020DC360120B9
:10446000F5E1BCEEC00A10EE103ADBB2CDE9003146
:10447000CDE902029DED590AF2EE040A20EE200A6F
:10448000BDEEC00A10EE100A00B243909DED5A0A2C
:10449000F2EE040A20EE200ABDEEC00A10EE100A69
:1044A00000B24290F04890ED020ABCEEC00A10EE55
:1044B000100AC0B241909DED481ADDED460A9DED0F
:1044C000470A0220459B449AFFF7DFF9E748008836
:1044D000E749098890FBF1F0C0B24590FFF7B4FAC4
:1044E000002143914290BDF9342100E02FE0E14BDF
:1044F000459952981B68CDE90132CDE90310DA489D
:1045000090ED020ABCEEC00A10EE100AC0B2009094
:10451000D54890ED020ABCEEC00A10EE100AC0B2F7
:104520004190DDED482AD44890ED002AD348D0EDE3
:10453000001AD34890ED001AD248D0ED000AD248B4
:1045400090ED000A0220439B429AFFF7CCF9C6483F
:1045500090ED180AB5EEC00AF1EE10FA33D0022041
:104560003E90CAA03F90FFF76FFA00214191409022
:104570009DED4C0A8DED430A9DED4B0A8DED440AED
:104580009DED4A0A8DED450A41994098CDE93601E5
:104590009DED430A8DED380A9DED440A8DED390AF3
:1045A0009DED450A8DED3A0A0A223BA83F99FFF797
:1045B0005CF931201E2336AAFA2100903E98FFF7BD
:1045C000EAF800BF00BF0020AA4908601FED660A94
:1045D000AD4880ED000A1FED680AAA4880ED000A88
:1045E0000020A3490880A14908801FED6D0AA44856
:1045F00080ED000A1FED700AA04880ED000A1FED53
:10460000720A9D4880ED000A1FED750A8DED580A6B
:104610001FED770A8DED570A1FED790A8DED5A0AC5
:104620001FED7B0A8DED590A00205490539000BF76
:1046300000BF5E9800F0010008B1FCF71BFB954835
:10464000007860B1884890ED060AB5EEC00AF1EE38
:1046500010FA01D0FCF716F800208E4908708E4839
:10466000007830B1FCF7EAFAFCF720FB00208A4919
:1046700008708A48007830B1FDF780F9FCF73DF802
:1046800000208649087086480078E0B3764890EDAF
:10469000070AB5EEC00AF1EE10FA43D002204190AD
:1046A000804800684290804890ED000A8DED430AF2
:1046B00090ED010A8DED440A90ED020A8DED450A58
:1046C00090ED030A8DED460A90ED040A8DED470A40
:1046D00090ED050A8DED480A42983A909DED430A07
:1046E0008DED3B0A9DED440A8DED3C0A9DED450A9A
:1046F0008DED3D0A9DED460A8DED3E0A9DED470A82
:104700008DED3F0A00E010E09DED480A8DED400A76
:10471000B9201C233AAA202100904198FFF73BF8CA
:1047200000BF00BF00205E4908704F4890ED160A98
:10473000B5EEC00AF1EE10FA7DD05C480078002892
:1047400079D051984890484890ED0B0ABCEEC00AC9
:1047500010EE100A80B24790434890ED0C0ABCEE70
:10476000C00A10EE100A80B2469002203D9003204D
:104770003E9048983F904798409046984190FD2140
:10478000489890FBF1F0401C80B243914290642025
:1047900044903F9839904098ADF8E8004198ADF8C2
:1047A000EA004298ADF8EC003E988DF8EE00439890
:1047B0008DF8EF0044988DF8F0001D200D2339AAE4
:1047C000822100903D98FEF7E6FF00BF0120FEF732
:1047D000C0FF00204590459020E00220429045987F
:1047E00000EB4001C1EB00214390639808444490E2
:1047F0004398ADF80800FD220DF10A004499FFF737
:1048000034F8DF20FF2302AA832100904298FEF7AC
:10481000C2FF00BF4598401C80B24590FD214898DA
:1048200090FBF1F0401C45998842D6DC00201F49DE
:1048300008700BE0FFE70C4890ED160AB5EEC00AD1
:10484000F1EE10FA02D10120FEF778FF00BFFFF76A
:1048500010BA70B504460D46164632462946204623
:10486000FBF71FFD70BD0000F4360120C2000020E0
:10487000C0000020C4000020BC000020B8000020C0
:10488000B4000020B0000020AC0000204759524F77
:1048900000000000A4000020A5000020A6000020C9
:1048A000A8000020A0000020DC360120A700002086
:1048B00070B505460E4642F210740121FE4802F022
:1048C000CCFB00BF05E0201EA4F1010401D1FF20B4
:1048D00070BDFA49F84802F0B8FC0028F3D0002275
:1048E000B821F54802F0D1FB42F2107405E0201E19
:1048F000A4F1010401D1FF20EAE7F149EE4802F0FA
:10490000A4FC0028F3D0E9B2EB4802F042FC42F2EA
:10491000107405E0201EA4F1010401D1FF20D7E7A7
:10492000E749891CE44802F090FC0028F2D03146A7
:10493000E14802F02EFC42F2107405E0201EA4F1C2
:10494000010401D1FF20C3E7DD49891CDA4802F0E8
:104950007CFC0028F2D00121D74802F08AFB00201D
:10496000B6E770B506460C4621123046FFF7A0FFA9
:104970000546E1B2F020FFF79BFF0543284670BDD6
:1049800070B5054642F2107400260121CA4802F0B3
:1049900064FB00BF05E0201EA4F1010401D1FF204B
:1049A00070BDC649C44802F050FC0028F3D0002274
:1049B000B921C14802F069FB42F2107405E0201EE3
:1049C000A4F1010401D1FF20EAE7BD49BA4802F091
:1049D0003CFC0028F3D0E9B2B74802F0DAFB42F21F
:1049E000107405E0201EA4F1010401D1FF20D7E7D7
:1049F000B349891CB04802F028FC0028F2D0AE4828
:104A00001430008840F48060AB49143108800121E3
:104A1000A94802F022FB42F2107405E0201EA4F126
:104A2000010401D1FF20BBE7A449A34802F00DFC1B
:104A30000028F3D00122B9219F4802F026FB42F260
:104A4000107405E0201EA4F1010401D1FF20A7E7A6
:104A50009A49491C984802F0F8FB0028F2D000213E
:104A6000954802F01AFB42F2107405E0201EA4F1F2
:104A7000010401D1FF2093E790493F318E4802F0B5
:104A8000E4FB0028F2D001218B4802F0F2FA8A48B8
:104A900002F081FB0646304682E770B5054628469F
:104AA000FFF76EFF0402F020FFF76AFF0443204681
:104AB00070BD2DE9F04F97B0824890ED1B0AB5EE1E
:104AC000C00AF1EE10FA02D048F2881401E04FF467
:104AD000C4747C4890ED0B0AF1EE000A20EE200A27
:104AE000BCEEC00A10EE100A85B2764890ED0C0AB2
:104AF000F1EE000A20EE200ABCEEC00A10EE100A09
:104B000086B24FF43C774FF4F07940F2B91A4FF087
:104B10000A0BC7F53C705B3080B216900A201590E6
:104B200040F20A301490401F139001201290484622
:104B300011904020109080010F903A200E9040F28A
:104B400003200D904FF480700C9003200B9040F2E6
:104B5000BB100A9040F2D91009904FF4B27008903F
:104B600048460790022006900120059002200490FC
:104B70000390544890ED0E0AB5EEC00AF1EE10FA1B
:104B800019D001201290402011903A200E9040F24E
:104B900002200D9000200C9040F203300B9040F268
:104BA000BB100A9040F2D91009904FF4B2700890EF
:104BB0004846079019E001201290402011901020E3
:104BC0000E9040F202200D9000200C9040F2033035
:104BD0000B9040F2BB100A9040F2D91009904FF4AC
:104BE000B27008904FF4F07007900020029001908E
:104BF000344890ED0F0AB5EEC00AF1EE10FA0AD073
:104C000090ED100AB5EEC00AF1EE10FA03D140F2B1
:104C10000110029001E0002002902A4890ED100A55
:104C2000B5EEC00AF1EE10FA03D04FF440500190F7
:104C300001E0002001900020FFF72FFF804641F2A5
:104C4000243188457DD121460720FFF78AFE294679
:104C50000420FFF786FE31460320FFF782FE51460F
:104C60000520FFF77EFE59460620FFF77AFE0D204D
:104C70001499FFF776FEC5F53C70009000EBD070FC
:104C80004010401C81B20120FFF76BFEC6F5F070AA
:104C9000009000EBD0704010001D81B20220FFF7A1
:104CA00060FE08200A99FFF75CFE09200999FFF7CA
:104CB00058FE0A20089907E0005800400100030050
:104CC00082000700F4360120FFF74BFE32200799DF
:104CD000FFF747FE3946CC20FFF743FE4946CB207D
:104CE000FFF73FFECD201699FFF73BFECE2015992A
:104CF000FFF737FE0E201399FFF733FE0121C9207D
:104D0000FFF72FFE0421CA20FFF72BFECF200A99C0
:104D1000FFF727FED0200999FFF723FED12008993D
:104D2000FFF71FFE3A200799FFF71BFE702002993C
:104D3000FFF717FEAF200B99FFF713FE0F200C991A
:104D400000E031E0FFF70DFEAC201299FFF709FEFD
:104D5000AD201199FFF705FEAB201099FFF701FE7A
:104D6000B0200F99FFF7FDFDA5200E99FFF7F9FD83
:104D70001C200D99FFF7F5FD7F200199FFF7F1FD4C
:104D8000A6200699FFF7EDFDA8200599FFF7E9FD9C
:104D9000A9200499FFF7E5FDAA200399FFF7E1FD9B
:104DA00001210C20FFF7DDFD17B0BDE8F08F10B535
:104DB000084890ED1B0AB5EEC00AF1EE10FA02D0D9
:104DC00048F2881401E04FF4C47421460720FFF72D
:104DD000C8FD10BDF436012010B50B46016899439B
:104DE0001143016010BD00B54FF4807200210C48E2
:104DF000FFF7F2FF00BD0B49096801F4E0600A49C2
:104E0000084308490860BFF34F8F00BFFEE7044620
:104E100024B1FFF7E8FF054805490860FFF7EBFFFD
:104E2000007000400CED00E00400FA0507B007B088
:104E30005028004010B59FEDFC0AFC4880ED000AA8
:104E4000FBA1983006F0BDFC0120F84981F8D202A0
:104E50009FEDF90A084680ED010AF8A1A73006F097
:104E6000B0FC0121F14880F8D3129FEDF70A80EDE4
:104E7000020AF6A1B63006F0A4FC0121EB4880F846
:104E8000D4129FEDF60A80ED030AF5A1C53006F0B5
:104E900098FC0121E54880F8D5129FEDF00A80EDDD
:104EA000040AF2A1D43006F08CFC0121DF4880F81E
:104EB000D6129FEDF10A80ED050AF0A1E33006F06D
:104EC00080FC0121D94880F8D712B7EE000A80EDA6
:104ED000060AEDA1F23006F074FC0121D34880F8F7
:104EE000D8129FEDDE0A80ED070AEBA100F2011057
:104EF00006F067FC0121CD4880F8D9129FEDD70A52
:104F000080ED240AE8A100F52D7006F05AFC01217D
:104F1000C64880F8F6129FEDE70A80ED080AE6A180
:104F200000F5887006F04DFC0021C04880F8DA12C8
:104F30009FEDE00A80ED090AE3A100F21F1006F0E0
:104F400040FC0021B94880F8DB12B3EE000A80ED86
:104F50000A0AE1A100F5977006F033FC0121B3487D
:104F600080F8DC129FEDE00A80ED0B0ADFA100F271
:104F70003D1006F026FC0021AC4880F8DD129FEDC4
:104F8000DA0A80ED0C0ADCA100F5A67006F019FC27
:104F90000021A64880F8DE129FEDB00A80ED0E0ACF
:104FA000D9A100F5B57006F00CFC01219F4880F8EE
:104FB000E012B7EE000A80ED0F0AD7A100F27910D7
:104FC00006F0FFFB0121994880F8E1129FEDA30A4A
:104FD00080ED100AD4A100F5C47006F0F2FB0121A7
:104FE000924880F8E2129FEDD40A80ED110AD3A115
:104FF00000F2971006F0E5FB01218C4880F8E312DF
:105000009FEDD20A80ED120AD1A100F5D37006F00F
:10501000D8FB0121854880F8E4129FED900A80EDCD
:10502000130ACFA100F2B51006F0CBFB01217F4897
:1050300080F8E5129FEDCE0A80ED140ACDA100F5AF
:10504000E27006F0BEFB0121784880F8E6129FED81
:10505000CD0A80ED150ACCA100F2D31006F0B1FB09
:105060000121724880F8E712B7EE000A80ED160AB7
:10507000C9A100F5F17006F0A4FB01216B4880F88E
:10508000E812B7EE000A80ED170AC7A100F2F1108E
:1050900006F097FB0121654880F8E912B7EE000A97
:1050A00080ED180AC4A100F5007006F08AFB01210A
:1050B0005E4880F8EA129FED690A80ED190AC2A1E4
:1050C00000F20F2006F07DFB0121584880F8EB121A
:1050D000B7EE000A80ED1A0ABFA100F21E2006F00A
:1050E00070FB0121514880F8EC129FED5C0A80EDC5
:1050F0001B0ABDA100F22D2006F063FB01214B48E5
:1051000080F8ED129FEDBB0A80ED1C0ABAA100F5F4
:105110000F7006F056FB0121444880F8EE12B1EE04
:10512000000A80ED0D0AB7A100F25B1006F049FB02
:1051300000213E4880F8DF129FEDB60A80ED1E0A7E
:10514000B5A100F25A2006F03CFB0121374880F857
:10515000F012B3EE0E0A80ED1D0AB3A100F24B204F
:1051600006F02FFB0121314880F8EF129FED3B0A3A
:1051700080ED1F0AB0A100F2692006F022FB012198
:105180002A4880F8F1129FED350A80ED200AAEA181
:1051900000F51E7006F015FB0121244880F8F2127C
:1051A0009FED2E0A80ED210AABA100F2872006F0C8
:1051B00008FB01211D4880F8F3129FEDAB0A80ED3A
:1051C000220AAAA100F2962006F0FBFA0121174854
:1051D00080F8F412B2EE040A80ED230AA6A100F2D0
:1051E000A52006F0EEFA0121104880F8F512B7EE7E
:1051F000000A80ED250AA4A100F2C32006F0E1FA1E
:1052000001210A4880F8F71210BD704710B5044616
:105210004CB99FED350A054880ED0B0A9FED320A27
:1052200080ED0C0A39E133E10000A242F43601209E
:105230005359535F49440000000048425359535F9B
:10524000434F4D505F49440000009A425359535F09
:1052500053454E534F525F49440000000000000088
:105260005359535F54595045000000005359535F40
:1052700041505F54595045000080A2445359535F38
:1052800053575F56455200005359535F53454E44A0
:105290005F535441544500005359535F53454E44A6
:1052A0005F4C504F53000000504F534954494F4EEC
:1052B000000000000000E14755534152545F325F47
:1052C000424155440000000055534152545F335F42
:1052D00042415544000000004C454E535F464F4349
:1052E000414C5F4C454E000000008042494D414713
:1052F000455F574944544800494D4147455F48453B
:105300004947485400000000494D4147455F4C5F04
:105310004C49474854000000494D4147455F4E4FB6
:105320004953455F43000000494D4147455F54459F
:1053300053545F504154000000007A434759524F84
:105340005F53454E535F4450530000000AD7233C3F
:105350004759524F5F434F4D505F54485200000031
:10536000534F4E41525F46494C544552454400000C
:10537000029A583F534F4E41525F4B414C5F4C3164
:10538000000000004182C640534F4E41525F4B41E6
:105390004C5F4C32000000005553425F53454E4471
:1053A0005F564944454F00005553425F53454E44B4
:1053B0005F464C4F570000005553425F53454E44E3
:1053C0005F4759524F0000005553425F53454E44CA
:1053D0005F465744000000005553425F53454E441A
:1053E0005F44454255470000564944454F5F4F4E84
:1053F0004C59000000001643564944454F5F524146
:105400005445000042464C4F575F4D41585F50494C
:105410005800000000409C4542464C4F575F565F85
:1054200054484C440000000042464C4F575F465FD2
:1054300054484C440000000042464C4F575F4849D6
:1054400053545F46494C000042464C4F575F475902
:10545000524F5F434F4D000042464C4F575F4C50F8
:105460005F46494C000000009A99993E42464C4FD5
:10547000575F575F4E45570042464C4F575F544861
:10548000524F54540000000044454255470000006C
:10549000214605A0FCF742FA10BD00BF214608A036
:1054A000FCF73CFA00BFF7E7556E7573656420732F
:1054B000656E736F7220706F736974696F6E3A00F6
:1054C0005365742073656E736F7220706F736974A7
:1054D000696F6E3A0000000010B54FF48071CB4840
:1054E00001F0C6FC10BD70B52DED028B40F22551C8
:1054F000C74803F0EEFB00287DD0C54803F027FB2A
:10550000C4B2522C0AD10020C24908600120C2490D
:1055100008600102BD4801F0ADFC80E0302C0FDBDB
:10552000392C0DDCBC480068002878D0BB48B9494C
:1055300009684454B7480068401CB64908606EE0EA
:105540000D2C69D1B4480068002861D0B1480068CA
:1055500004285DD10020B1490871084606F012F90F
:10556000054600EE105AB8EEC00ADFEDAD0AB4EE03
:10557000E00AF1EE10FA45DD00EE105AB8EEC00A6E
:10558000DFEDA80AB4EEE00AF1EE10FA3AD2A6482E
:105590000068A6490860FEF757FAA3490860084664
:1055A0000068A3490860A0480068A0490968401A3B
:1055B00000EE100AB8EE400ADFED9E0A80EE201AD7
:1055C0009D4880ED001A9D480560006800EE100AB5
:1055D000B8EEC00ADFED9A0A80EE201AB0EE418ADA
:1055E000B0EE480A00F078F9964880ED000A0120F4
:1055F0009549086000E013E0B7EE000A934880ED9B
:10560000000A04E09FED920A904880ED000A00BF76
:1056100000208149086002E000207F49086000BF47
:10562000BDEC028B70BD8448D0ED000AB5EE001AC7
:10563000F4EEC10AF1EE10FA04DDDFED850A8548CB
:10564000C0ED000A8448D0ED000A7B4890ED001AB6
:105650008048D0ED001A41EE210A8048C0ED000AD2
:105660007F48D0ED000A7B48C0ED000A754890EDF8
:10567000000A7C4880ED000A7B4890ED141A7748B8
:10568000D0ED000A70EE601AD0ED000A41EE210A5A
:105690007148C0ED000A744890ED151A6F48D0EDBE
:1056A000000A70EE601A6B48D0ED000A41EE210A44
:1056B0006B48C0ED000A704770B504460D4662485D
:1056C000006840B1FFF7AFFF00205F490860FEF7B8
:1056D000BBF966490860604890ED000ADFED640A96
:1056E000B4EEE00AF1EE10FA08D390ED000AF0EE05
:1056F0000C0AB4EEE00AF1EE10FA04DD9FED540A54
:10570000524880ED000A544890ED000A84ED000AEA
:10571000544890ED000A85ED000A4C4890ED000ACF
:10572000B5EEC00AF1EE10FA01D0012070BD0020E4
:10573000FCE700B589B00020404908600121102035
:1057400001F074FF4FF48070079001208DF8200065
:105750008DF8220002208DF8210000208DF8230012
:1057600007A92A4801F008FB34208DF81800002012
:105770008DF819008DF81A0001208DF81B0006A87D
:1057800000F087FF0121C80401F083FF01210420FC
:1057900001F04CFF08220B21364801F078FB022073
:1057A0008DF8140003208DF8150000208DF81600E8
:1057B00001208DF81700C002049004A92D4801F0C3
:1057C000DBFA4FF4165000900020ADF80400ADF85D
:1057D0000600ADF80800ADF80C000420ADF80A0092
:1057E00069460B4803F0FCF8012240F225510848B5
:1057F00003F034FA0121064803F07AF909B000BD3C
:105800001A48006870470A48006870470010024054
:10581000004C0040E4000020E8000020CC00002004
:105820000000F04200C05A45D8000020D4000020FB
:10583000F000002000247449DC000020E00000207B
:1058400000007A440C010020EC0000201001002030
:1058500000000000FC00002000010020F8000020F3
:105860000401002008010020F4360120F40000208B
:105870008FC2F53D0008024010B50246002327E024
:10588000002020E002EB8004D4ED000A441C02EB6F
:10589000840494ED001AF4EEC10AF1EE10FA11DD61
:1058A00002EB800494ED000A441C02EB8404D4ED66
:1058B000000A02EB8004C4ED000A441C02EB8404DD
:1058C00084ED000A401CCC1A641E8442DAD85B1CAA
:1058D000481E9842D4D810BD10B52DED028B84B06F
:1058E000B0EE408A032411481149096800EB810099
:1058F00080ED008A0E480068401C0D49086008468B
:105900000068032801D1002008600848D0E900128F
:105910008068CDE901120390032101A8FFF7ACFFD5
:105920009DED020A04B0BDEC028B10BDEC390120E4
:105930001401002070B506460C46002240F2277183
:10594000FE4803F08BF9FE490968FE4A1268891A7D
:1059500001F6FF70C11700EB11510913A0EB0131E3
:10596000A1421DDD002511E0705DF749F54A12687E
:105970008854F4490968481CC11700EB11510913F8
:10598000A0EB0131EF4A1160681CC5B2A542EBDB08
:10599000012240F22771E94803F060F9012070BD4F
:1059A000012240F22771E54803F058F90020F6E79C
:1059B00070B506460C46002240F22771E34803F01A
:1059C0004DF9E3490968E34A1268891A01F6FF7044
:1059D000C11700EB11510913A0EB0131A1421DDDEC
:1059E000002511E0705DDC49DA4A12688854D94913
:1059F0000968481CC11700EB11510913A0EB0131D4
:105A0000D44A1160681CC5B2A542EBDB012240F20A
:105A10002771CE4803F022F9012070BD012240F227
:105A20002771CA4803F01AF90020F6E7CB4800684E
:105A3000CB490968884201D0012070470020FCE76B
:105A4000C8480068C8490968884201D001207047E9
:105A50000020FCE710B5002240F22551B74803F0C2
:105A6000FDF8C248BD490968445CBC490968481C46
:105A7000C11700EB11510913A0EB0131B74A1160B6
:105A8000012240F22551AD4803F0E8F8204610BD50
:105A900010B5002240F22551AC4803F0DFF8B448BD
:105AA000B0490968445CAF490968481CC11700EB5C
:105AB00011510913A0EB0131AA4A1160012240F2F1
:105AC0002551A24803F0CAF8204610BD10B59B48E6
:105AD00003F03DF8A549A24A12688854A049096814
